:0400000043EF07F0D3
:08000800046ED8CF05F0E0CF33
:1000100006F00001E9CF0CF0EACF07F0E1CF08F0DD
:10002000E2CF09F0D9CF0AF0DACF0BF0F3CF12F01C
:10003000F4CF13F0FACF14F0F5CF15F0F6CF16F099
:10004000F7CF17F000C00EF001C00FF002C010F0A3
:1000500003C011F0F2AA30EF00F0F2B4D7EF00F0D5
:100060000EC000F00FC001F010C002F011C003F08C
:100070000CC0E9FF07C0EAFF078E08C0E1FF09C016
:10008000E2FF0AC0D9FF0BC0DAFF12C0F3FF13C0B2
:10009000F4FF14C0FAFF15C0F5FF16C0F6FF17C035
:1000A000F7FF045006C0E0FF05C0D8FF1000F76A54
:1000B000BE0FF66E000EF7220900F5501200000187
:1000C00002030405060708090A0B0C0D0E0F404138
:1000D00042434445464748494A4B4C4D4E4FF76AC8
:1000E000EE0FF66E000EF7220900F5501200526571
:1000F00073756D653F00F76A060FF66E010EF72205
:100100000900F550120049646C650A0D0000F76A99
:100110001E0FF66E010EF7220900F5501200486519
:100120006174696E672054696D653A00F76A3C0F27
:10013000F66E010EF7220900F5501200436F6F6C46
:10014000696E672054696D653A00F76A5A0FF66E5A
:10015000010EF7220900F55012004E6F77206865F6
:100160006174696E672E0000F76A780FF66E010EF3
:10017000F7220900F55012004E6F7720636F6F6C05
:10018000696E672E00009284000E80B4010E016E2D
:10019000ECEF00F09282000E80B2010E016EEFEFE4
:1001A00000F09280000E80B0010E016E1200030E6E
:1001B000006E002EFED70000F80ED76E2F0ED66E02
:1001C00000001F5202E1205204E01F50D8B4200664
:1001D0001F0621C022F0D7D701C076F0DBD7D89018
:1001E00001347611216E215207E1222C01D0230621
:1001F0002250020801E1232A2C5206E0266A010E51
:10020000256E286A276E2C6ACCDF01521BE0252A56
:10021000D8B4262A2650020815E2FF0A03E1255029
:10022000E70810E2030E286EE80E276E265002083B
:1002300009E2FF0A03E12550E80804E2030E266EF6
:10024000E80E256EAEDF015208E1265203E125508B
:10025000950803E2286A960E276E2B520FE029506C
:100260002A100CE02950D8B42A06290629502A1051
:1002700005E1EA0E2A6E5F0E296E2B06F294F294C7
:1002800030EF00F02575206D696E75746573202060
:1002900000002575206D696E757465202000257538
:1002A000206D696E75746573202000002575206DC2
:1002B000696E7574652020200000483A202575007D
:1002C000433A202575202000880ED56EF80ED76E93
:1002D0002F0ED66E0000F28AC00EF212AFEF02F0BF
:1002E000000E0509CA6E520ECB6E200ECC6EB4EF16
:1002F00002F05A5204E08B809490010E1A6E5A520A
:1003000006E18B9094908B9294921A6A1B6A120069
:100310005A5206E01A5204E08B829492010E1B6E30
:100320005A5203E18B9294921B6A12005AC0BEFF8C
:100330001200755302E18A9401D08A8493941200CA
:10034000755302E18A9801D08A88939812007553F8
:1003500002E18A9601D08A8693961200948C746B7F
:1003600082BC742BD8907437948E000E82BE010E1E
:100370007413D89074379380000E81B0010E7413FB
:10038000D89074379382000E81B2010E741374C03A
:1003900001F01200756BD4DF010E756FD8DF010E0E
:1003A000756FC7DF0000948C746B82BC742B756B07
:1003B000C0DF0000010E756FBCDF0000756BB9DF98
:1003C0000000745307E0756BB4DF0000010E016E8E
:1003D00006D005D0756BADDF0000000E016EF2EFA8
:1003E00001F0D8D70152FDE1120075BF02D08B9CFD
:1003F00001D08B8C949C75BD02D08B9E01D08B8ECE
:10040000949E75BB02D08A9001D08A80939075B972
:1004100002D08A9201D08A8293921200E2DF756B39
:100420008FDF756B94DF000073C075F0DEDF010EA7
:10043000756F7FDF0000756B7CDF00007339746FB0
:10044000F00E741774C075F0D0DF010E756F71DF98
:100450000000756B6EDF000081DF1200EA6A4B0E50
:10046000E96EEF500DE0020E016E006A002EFED71D
:10047000012EFBD7970E006E002EFED7EF2EF3D77E
:100480001200756B56DF756B5BDF010E756F5FDFFA
:1004900065DF280E736FC2DF0A0E4B6EDFDF280E9A
:1004A000736FBCDF6E0E4B6ED9DF280E736FB6DF35
:1004B0006E0E4B6ED3DF0F0E736FB0DF92DF010E47
:1004C000736FACDF8EDF060E736FA8DFC0EF02F034
:1004D0007151100DF3507025036AE9DD016E016E54
:1004E000120063C070F064C071F0F2DF01C065F00B
:1004F00063C01CF064C01DF065518009666F736FA6
:100500008DDF12006EDF010E736F88DF6ADF636BB1
:10051000646BE7DF12004B500C094C6E736F7EDF8B
:10052000C3EF02F0F2CF4BF0F29EA96AA69CA69E02
:10053000A680A8504BBEF28E416EF2CF4BF0F29ED9
:10054000010EA96EA69CA69EA680A8504BBEF28E58
:10055000426EC5EF02F0700ED36ED350B5D6030EC7
:10056000206EE80E1F6EBCD694948B940C0EBD6E5C
:100570005A6ABFDE5A6ACCDE200E5A6ED7DE81D7A9
:10058000C1DF4B6AC8D7BEDFCDD76CEF07F0705123
:100590008009726F736F42DF24DF010E756FD0DE4A
:1005A000010E756FD4DE0000010E756FC2DE000013
:1005B000D5DE01C071F0756BBCDE0000010E756FF9
:1005C000B8DE0000713BF00E7117C8DE01507113E8
:1005D000756BAFDE71C001F0F8EF02F06DC070F026
:1005E0006EC071F075DF01C06FF06FC070F0CFD7D3
:1005F00001502AEF03F0F5DE010E756FA1DE756B79
:10060000A6DE00006DC075F0F0DE010E756F91DEA4
:100610000000756B8EDE00006D396E6FF00E6E1788
:100620006EC075F0E2DE010E756F83DE0000756B43
:1006300080DE000093DE1200010E6A6F6A5101082D
:1006400020E3696B69510F081AE369C06DF06AC055
:100650006EF0C4D701C06BF0010E6A5D6D6F69C0AA
:1006600070F0716F35DF01C06CF06C5180096D6FF7
:10067000736FD4DE6BC06DF0BEDF692BE3D76A2BDE
:10068000DDD7696B69510F080FE369C070F0010E87
:10069000716F1EDF015080096D6F736FBFDE200E1A
:1006A0006D6FA9DF692BEED75CEF03F01D500108D9
:1006B00003E2010E1D6EC0D71CC070F01DC071F0AA
:1006C00007DF01C01EF068510A0A03E0070A0DE0C7
:1006D00018D01D2A1CC070F01DC071F0F9DE015049
:1006E0008009696F736F9ADE15D01C6A1CC070F0A8
:1006F0001DC071F0EDDE01508009696F736F8EDEF1
:1007000009D01E508009696F736F88DE68C06DF074
:1007100072DF1C2A1C500F0807E21C6A1D2A1E509B
:100720008009696F736F7ADE68C001F0B1EF03F082
:1007300066C003F065C0E9FF66C0EAFFEF5215E04E
:1007400066C003F065C0E9FF66C0EAFFEF5209E04A
:1007500066C003F065C0E9FF66C0EAFFEFCF68F04E
:10076000A5D7652BD8B4662BE3D7120048C0EAFFA3
:1007700047C0E9FF5DC0EFFFE92AD8B4EA2AEF6A73
:10078000472AD8B4482A12000900F6CF5BF0F7CF09
:100790005CF0F5CF5DF0EADF5BC0F6FF5CC0F7FF11
:1007A0005A2EF2D712005D50016A5C5C03E25CC015
:1007B00000F00CD0006A080E5E6E5C3600365D50AC
:1007C000005CD8B0006E01365E2EF7D712000150E3
:1007D0005AC05CF0640E5D6EE6DF00C05AF0015056
:1007E000300E07E15BA20CD05BB60AD05BB8200EDE
:1007F00003D05B965B985B80012601C05DF0B6DF9D
:100800005AC05CF00A0E5D6ECEDF00C05AF0015097
:10081000300E06E15BB608D05BA006D05BB8200EB8
:10082000012601C05DF0A2DF300E5A265AC05DF0ED
:100830009DDF1200010E2C6E2C52FEE11200272CBF
:1008400007D0285205E1010E016E000E026E11D094
:100850002750E80809E12850030806E1EBDFE80E1D
:10086000016E030E026E05D0E5DF960E016E000EDE
:10087000026E1200928C000E80BC010E016E1200FE
:10088000200E5A6E53DD3EDEEA6A4D0EE96E070E0B
:10089000016EF76A000E2FDC0A000900F5CFEEFFAB
:1008A000012EFBD7666B4D0E656F42DF636B010E49
:1008B000646F17DE486A2D0E476EBA0EF66E020E92
:1008C000F76E030E5A6E60DF41C05AF01B0E5B6E6E
:1008D0007EDF666B2D0E656F2BDF070E636F010EDB
:1008E000646FFFDD486A2D0E476EC00EF66E020E75
:1008F000F76E030E5A6E48DF42C05AF01B0E5B6E55
:1009000066DF200E5D6E32DF200E5D6E2FDF666BC0
:100910002D0E656F0DDF5A6AFBDC5A6AEADC2B6A22
:100920002A6A296A465218E18ADF02C04CF001C0E7
:100930004BF04B50E80808E14C50030805E19ADF02
:10094000015202E1030E466E4B50960804E14C52F0
:1009500002E1010E466EE6D72EEF07F0636B010E43
:10096000646FBFDD5950010810E2486A2D0E476ED2
:1009700059C05AF01B0E5B6E2ADFA00EF66E020EF7
:10098000F76E0A0E5A6E00DF0FD0486A2D0E476EC2
:1009900059C05AF01B0E5B6E1ADFAE0EF66E020ED9
:1009A000F76E0A0E5A6EF0DE666B2D0E656FC0DEB6
:1009B0001200EA6A5B0EE96EEF500DE0020E016E66
:1009C000006A002EFED7012EFBD7970E006E002E78
:1009D000FED7EF2EF3D719EF05F0F250006EF29E1E
:1009E000A96A59C0A8FFA69CA69EA6840F01550E11
:1009F000A76EAA0EA76EA682A6B2FED7A694005036
:100A0000F212F2CF00F0F29E010EA96E5AC0A8FFBA
:100A1000A69CA69EA684550EA76EAA0EA76EA682B9
:100A2000A6B2FED7A6940050F2120A0E5B6E000129
:100A3000C0D71200F29CF29EF2BEFDD723AE01D0C9
:100A4000236A23BE05D023503C0802E23C0E236EED
:100A5000C00EF2122DEF05F0EDD723C043F01200C7
:100A6000C80E5A6E63DC4EDDEA6A4B0EE96E0E0E5E
:100A7000016EF76A000E87EC00F00A000900F5CF5E
:100A8000EEFF012EFBD7666B4B0E656F51DE5A6A87
:100A900030DC5A6A3DDC41C043F0446843C024F076
:100AA00024C023F043C059F059DF462C1CD04450D9
:100AB000435C05E043C059F051DF43C044F0BFDE62
:100AC00002C05AF00150596E96080BE15A5209E1E2
:100AD00043C041F0020E466E41C059F042C05AF088
:100AE0007CDFBADFE2D72EEF07F0C80E5A6E1EDCAD
:100AF00009DDEA6A4B0EE96E0E0E016EF76A000E12
:100B000096EC00F00A000900F5CFEEFF012EFBD7AE
:100B1000666B4B0E656F0CDE5A6A79EC01F05A6A0F
:100B200088EC01F042C043F0446843C024F024C084
:100B300023F043C059F012DF465002081BE1445035
:100B4000435C05E043C059F009DF43C044F077DE61
:100B500002C05AF00150596E96080AE15A5208E153
:100B600043C042F0466A41C059F042C05AF035DFF6
:100B700073DFE2D72EEF07F0206A63C01FF01F502B
:100B80002010FDE1CBEF05F0D1EC00F0015205E0C3
:100B9000640E636FF1D74EDEF7D71200010E236E9D
:100BA000B1DC636B646B9DDCEA6A5B0EE96E080E78
:100BB000016EF76A000E6FEC00F00A000900F5CF35
:100BC000EEFF012EFBD7666B5B0E656FB1DDDCDFE0
:100BD00031DE35DE02C064F001C063F0012C23D0A9
:100BE000645321E12350010B5A6E636B010E646F55
:100BF00078DC5A520CE0590E5B6E650E5C6E730E1B
:100C00005D6E5E6A666B5B0E656F92DD0BD04E0E9D
:100C10005B6E6F0E5C6E200E5D6E5E6A666B5B0EC9
:100C2000656F86DDD6D70BDE02C064F001C063F0CD
:100C3000012CF9D76453F7E15AC001F05EEF06F0DA
:100C4000636B010E646F4DDC2B50010810E2486AA3
:100C50002D0E476E2BC05AF01B0E5B6EB8DD860E54
:100C6000F66E020EF76E0A0E5A6E8EDD0FD0486ACF
:100C70002D0E476E2BC05AF01B0E5B6EA8DD940E36
:100C8000F66E020EF76E090E5A6E7EDD666B2D0E45
:100C9000656F4EDD2BC045F012003D0E456EEADD5E
:100CA000012C02D0466A69D0EA0E2A6E5F0E296EC8
:100CB00049520CE04150495C09E270D7015203E00F
:100CC00049C02BF002D041C02BF002D041C02BF024
:100CD0002B5204E1040E466E496A4FD0C80E5A6E7C
:100CE00096EC01F00FDCEA6A4D0EE96E0D0E016E16
:100CF000F76A000EA5EC00F00A000900F5CFEEFF40
:100D0000012EFBD7666B4D0E656F12DD3DDF415244
:100D100008E0010E5A6E79EC01F0010E5A6E88EC73
:100D200001F04650030829E145502B5C03E088DFC1
:100D30002BC049F084DD02C04CF001C04BF09ADDBD
:100D4000012C0DD0466A2BC049F02B6A2A6A296A09
:100D50005A6A88EC01F05A6A79EC01F00DD02B52F6
:100D600005E04B50960808E14C5206E1040E466E31
:100D70002B6A2A6A296A496AD4D72EEF07F03D0EFA
:100D8000456EC80E5A6E96EC01F082EC02F0EA6AEB
:100D90004B0EE96E0D0E016EF76A000EB4EC00F01A
:100DA0000A000900F5CFEEFF012EFBD7666B4B0E54
:100DB000656FBEDC425207E0010E5A6E79EC01F01D
:100DC0005A6A88EC01F04A5203E04AC02BF002D084
:100DD00042C02BF0EA0E2A6E5F0E296E46500408C0
:100DE0002BE145502B5CD8A42BDF29DD02C059F044
:100DF0000150586E960802E1595203E03BDD012C88
:100E00000ED0466A2B52D8A42BC04AF02B6A2A6A0D
:100E1000296A5A6A88EC01F05A6A79EC01F02B527F
:100E20000AE1466A2B6A2A6A296A5A6A88EC01F042
:100E30005A6A79EC01F0D2D72EEF07F0466A465095
:100E4000FB0F0CE2050F31EF07F01AD507D008D6DB
:100E500005D04BD603D021D701D091D7F0D76DEF75
:100E600007F0E824F76AF7367D0FF66E0E0EF722CC
:100E70000A00F550FA6E0800F550F96E4A0E4E0E53
:100E8000520E560E5A0EF86AD09E078E700ED36E12
:100E9000D3501A6A1B6A1C6A1D6A206A1F6A216A7B
:100EA00021C022F0236A246A266A010E256E286A70
:100EB000010E276E2A6A296A2B6A2C6A436A4468E3
:100EC000486A476A496A4A6AC150C00B0F09C16E35
:0C0ED000070EB46EABEF02F0B1D70300C8
:020000040030CA
:0E00000027C83E1E008781000FC00FE00F4092
:00000001FF
;PIC18F2455
;CRC=FC89  CREATED="16-Apr-24 20:44"
